{
  "contractName": "Election",
  "abi": [
    {
      "constant": true,
      "inputs": [
        {
          "name": "",
          "type": "int256"
        }
      ],
      "name": "optionmap",
      "outputs": [
        {
          "name": "counter",
          "type": "int256"
        },
        {
          "name": "opchoice",
          "type": "string"
        },
        {
          "name": "voteCount",
          "type": "int256"
        }
      ],
      "payable": false,
      "stateMutability": "view",
      "type": "function"
    },
    {
      "constant": true,
      "inputs": [],
      "name": "OpCt",
      "outputs": [
        {
          "name": "",
          "type": "int256"
        }
      ],
      "payable": false,
      "stateMutability": "view",
      "type": "function"
    },
    {
      "constant": true,
      "inputs": [
        {
          "name": "",
          "type": "address"
        }
      ],
      "name": "voters",
      "outputs": [
        {
          "name": "voted",
          "type": "bool"
        },
        {
          "name": "voteconf",
          "type": "int256"
        }
      ],
      "payable": false,
      "stateMutability": "view",
      "type": "function"
    },
    {
      "inputs": [],
      "payable": false,
      "stateMutability": "nonpayable",
      "type": "constructor"
    },
    {
      "anonymous": false,
      "inputs": [
        {
          "indexed": true,
          "name": "OptionPKey",
          "type": "int256"
        }
      ],
      "name": "UserVote",
      "type": "event"
    },
    {
      "constant": false,
      "inputs": [
        {
          "name": "OptionPKey",
          "type": "int256"
        }
      ],
      "name": "vote",
      "outputs": [],
      "payable": false,
      "stateMutability": "nonpayable",
      "type": "function"
    }
  ],
  "bytecode": "0x608060405234801561001057600080fd5b5061005e6040805190810160405280600881526020017f4f7074696f6e2031000000000000000000000000000000000000000000000000815250610176640100000000026401000000009004565b6100ab6040805190810160405280600881526020017f4f7074696f6e2032000000000000000000000000000000000000000000000000815250610176640100000000026401000000009004565b6100f86040805190810160405280600881526020017f4f7074696f6e2033000000000000000000000000000000000000000000000000815250610176640100000000026401000000009004565b6101456040805190810160405280600881526020017f4f7074696f6e2034000000000000000000000000000000000000000000000000815250610176640100000000026401000000009004565b6101717309d8bb02bd4ce750fb4b421acf0a818778a38c746101f0640100000000026401000000009004565b6102df565b600160008082825401925050819055506060604051908101604052806000548152602001828152602001600081525060026000805481526020019081526020016000206000820151816000015560208201518160010190805190602001906101df92919061023a565b506040820151816002015590505050565b60018060008373ffffffffffffffffffffffffffffffffffffffff1673ffffffffffffffffffffffffffffffffffffffff1681526020019081526020016000206001018190555050565b828054600181600116156101000203166002900490600052602060002090601f016020900481019282601f1061027b57805160ff19168380011785556102a9565b828001600101855582156102a9579182015b828111156102a857825182559160200191906001019061028d565b5b5090506102b691906102ba565b5090565b6102dc91905b808211156102d85760008160009055506001016102c0565b5090565b90565b61049c806102ee6000396000f300608060405260043610610062576000357c0100000000000000000000000000000000000000000000000000000000900463ffffffff1680633891c3201461006757806366c28d231461009457806369f00fed14610148578063a3ec138d14610173575b600080fd5b34801561007357600080fd5b50610092600480360381019080803590602001909291905050506101d5565b005b3480156100a057600080fd5b506100bf60048036038101908080359060200190929190505050610377565b6040518084815260200180602001838152602001828103825284818151815260200191508051906020019080838360005b8381101561010b5780820151818401526020810190506100f0565b50505050905090810190601f1680156101385780820380516001836020036101000a031916815260200191505b5094505050505060405180910390f35b34801561015457600080fd5b5061015d610439565b6040518082815260200191505060405180910390f35b34801561017f57600080fd5b506101b4600480360381019080803573ffffffffffffffffffffffffffffffffffffffff16906020019092919050505061043f565b60405180831515151581526020018281526020019250505060405180910390f35b60001515600160003373ffffffffffffffffffffffffffffffffffffffff1673ffffffffffffffffffffffffffffffffffffffff16815260200190815260200160002060000160009054906101000a900460ff16151514151561023757600080fd5b60018060003373ffffffffffffffffffffffffffffffffffffffff1673ffffffffffffffffffffffffffffffffffffffff1681526020019081526020016000206001015414151561028757600080fd5b60018060003373ffffffffffffffffffffffffffffffffffffffff1673ffffffffffffffffffffffffffffffffffffffff16815260200190815260200160002060000160006101000a81548160ff021916908315150217905550600160003373ffffffffffffffffffffffffffffffffffffffff1673ffffffffffffffffffffffffffffffffffffffff168152602001908152602001600020600101546002600083815260200190815260200160002060020160008282540192505081905550807f9fbc5d10dc3c9c19dc3079cae09a25296ad46adb5fa76c9e2265801eded1341260405160405180910390a250565b6002602052806000526040600020600091509050806000015490806001018054600181600116156101000203166002900480601f0160208091040260200160405190810160405280929190818152602001828054600181600116156101000203166002900480156104295780601f106103fe57610100808354040283529160200191610429565b820191906000526020600020905b81548152906001019060200180831161040c57829003601f168201915b5050505050908060020154905083565b60005481565b60016020528060005260406000206000915090508060000160009054906101000a900460ff169080600101549050825600a165627a7a72305820a186c91688e56554dea37542988b2b407313355da9a95ce963e7239139a93a220029",
  "source": "pragma solidity 0.4.24;\n\ncontract Election {\n    \r\n\tstruct Voter {\r\n        bool voted;\r\n        int voteconf;\r\n    }\n\tstruct OptionCh {\n        int counter;\n        string opchoice;\n        int voteCount;\n    }\n\t\r\n\t\tevent UserVote (\n        int indexed OptionPKey\n    );\n\n\t int public OpCt; \n\n    mapping(address => Voter) public voters;\n\n    mapping(int => OptionCh) public optionmap;\n\n\tfunction OptionConstruction (string foo) private {\n    OpCt += 1;\n\toptionmap[OpCt] = OptionCh(OpCt, foo, 0);\n\t}\n\n\tfunction authorization(address voter) private {\r\n    voters[voter].voteconf = 1;\r\n    }\r\n\n\n\t/*\n\taddress public creator;\n\tcreator = 0x0C282453C9943A14767338f9c2C9608dB343FbD4;\n\tint public creatorveri;\n\n\n\n\tfunction creatorperm () public {\n\t\trequire(msg.sender == creator);\n\t\tcreatorveri = 1;\n\t}\n\n\n\t*/\n    \n\tconstructor () public {\n\t    OptionConstruction(\"Option 1\");\n        OptionConstruction(\"Option 2\");\n\t    OptionConstruction(\"Option 3\");\n\t\tOptionConstruction(\"Option 4\");\n\t\tauthorization(0x09d8BB02Bd4Ce750fB4B421acF0A818778A38C74);\n\t\t// creatorperm(); \n    }\n\n\n    function vote (int OptionPKey) public {\n        \n\t\trequire(voters[msg.sender].voted == false);\n\t\trequire(voters[msg.sender].voteconf == 1);\n\n        voters[msg.sender].voted = true;\n\n        optionmap[OptionPKey].voteCount += voters[msg.sender].voteconf;\n\n        emit UserVote(OptionPKey);\n    }\n}",
  "sourcePath": "C:/Users/Will/evoting/contracts/Election.sol",
  "compiler": {
    "name": "solc",
    "version": "0.4.24+commit.e67f0147.Emscripten.clang"
  },
  "schemaVersion": "3.2.0",
  "updatedAt": "2020-06-22T21:12:18.596Z",
  "networkType": "ethereum"
}